:100000000C944D000C946C000C946C000C946C00DF
:100010000C946C000C946C000C946C000C946C00B0
:100020000C946C000C946C000C946C000C946C00A0
:100030000C946C000C946C000C946C000C946C0090
:100040000C946C000C946C000C946C000C946C0080
:100050000C946C000C946C000C946C000C946C0070
:100060000C946C000C946C000C946C000C946C0060
:100070000C946C000C946C000C946C000C946C0050
:100080000C946C000C946C000C946C00D300F80081
:1000900041011D0166018A01AF0111241FBECFEF8E
:1000A000D0E4DEBFCDBF11E0A0E0B1E0E8E2F4E0D3
:1000B00000E00BBF02C007900D92AE30B107D9F738
:1000C00021E0AEE0B1E001C01D92A031B207E1F73E
:1000D0000E9497000C9412020C940000CF93DF93BF
:1000E00000D01F92CDB7DEB789837B836A83898175
:1000F0008A3031F48A819B81BC018DE00E946E00C0
:1001000080EC90E0FC018081882F90E0807299273C
:10011000892BB1F386EC90E02981FC01208380E0FB
:1001200090E00F900F900F90DF91CF910895CF93B3
:10013000DF9300D01F92CDB7DEB781E290E0FC01E3
:10014000108282E290E02FEFFC01208387E290E0B2
:100150002FEFFC01208388E290E0FC0110821B82DB
:1001600087E090E09A83898310920F0110920E012C
:1001700080E290E0FC0180818B8380910E01909160
:100180000F01CC01A0E0B0E040E050E026E030E01C
:10019000841B950B2817390708F406C18A5B9F4F0B
:1001A000FC010C9409028B81882339F485E090E0EE
:1001B00090930F0180930E01FEC08B81813039F442
:1001C00081E090E090930F0180930E01F4C08B8149
:1001D000823039F482E090E090930F0180930E0119
:1001E000EAC086E090E090930F0180930E01E3C097
:1001F0008B81882339F485E090E090930F01809300
:100200000E01D9C08B81813039F483E090E0909366
:100210000F0180930E01CFC08B81823039F482E0D0
:1002200090E090930F0180930E01C5C086E090E0AE
:1002300090930F0180930E01BEC08B81882339F407
:1002400085E090E090930F0180930E011AC08B819E
:10025000813039F483E090E090930F0180930E0198
:1002600010C08B81823039F482E090E090930F01CE
:1002700080930E0106C086E090E090930F0180937A
:100280000E018B81882339F485E090E090930F0173
:1002900080930E0190C08B81813039F481E090E031
:1002A00090930F0180930E0186C08B81823039F4C8
:1002B00084E090E090930F0180930E017CC086E073
:1002C00090E090930F0180930E0175C08B8188237D
:1002D00039F485E090E090930F0180930E011AC0ED
:1002E0008B81813039F481E090E090930F0180930D
:1002F0000E0110C08B81823039F484E090E090933D
:100300000F0180930E0106C086E090E090930F01EC
:1003100080930E018B81882339F485E090E09093DF
:100320000F0180930E0147C08B81813039F481E049
:1003300090E090930F0180930E013DC08B8182303D
:1003400039F482E090E090930F0180930E0133C066
:1003500086E090E090930F0180930E012CC08B817A
:10036000882339F485E090E090930F0180930E018B
:1003700022C08B81813039F481E090E090930F01AD
:1003800080930E0118C08B81823039F482E090E0B6
:1003900090930F0180930E010EC086E090E0909341
:1003A0000F0180930E0107C086E090E090930F014B
:1003B00080930E01000080910E0190910F01823018
:1003C000910581F086309105C1F0019709F01BC0BD
:1003D00089819A810997A4F489819A8101969A83E7
:1003E00089830EC089819A81181619065CF4898167
:1003F0009A8101979A83898305C01A82198203C062
:10040000000001C0000088E290E02981FC01208307
:10041000AFCEEE0FFF1F0024001C0BBE0790F6911D
:08042000E02D0994F894FFCFD0
:0E04280000000002000000006E000000000056
:00000001FF
