:100000000C944D000C946C000C946C000C946C00DF
:100010000C946C000C946C000C946C000C946C00B0
:100020000C946C000C946C000C946C000C946C00A0
:100030000C946C000C946C000C946C000C946C0090
:100040000C946C000C946C000C946C000C946C0080
:100050000C946C000C946C000C946C000C946C0070
:100060000C946C000C946C000C946C000C946C0060
:100070000C946C000C946C000C946C000C946C0050
:100080000C946C000C946C000C946C00D000DB00A1
:10009000E600F000FA0004010E0111241FBECFEFAC
:1000A000D0E4DEBFCDBF11E0A0E0B1E0E2EAF2E0D3
:1000B00000E00BBF02C007900D92AE30B107D9F738
:1000C00021E0AEE0B1E001C01D92A031B207E1F73E
:1000D0000E9497000C944F010C940000CF93DF9383
:1000E00000D01F92CDB7DEB789837B836A83898175
:1000F0008A3031F48A819B81BC018DE00E946E00C0
:1001000080EC90E0FC018081882F90E0807299273C
:10011000892BB1F386EC90E02981FC01208380E0FB
:1001200090E00F900F900F90DF91CF910895CF93B3
:10013000DF9300D0CDB7DEB781E290E0FC01108202
:1001400082E290E02FEFFC01208384E290E02FEF29
:10015000FC01208385E290E0FC0110821A82198262
:1001600010920F0110920E0180E290E0FC0180815C
:1001700080958A8380910E0190910F01CC01A0E0BF
:10018000B0E040E050E026E030E0841B950B2817FB
:10019000390708F44DC08A5B9F4FFC010C9446015F
:1001A0008A81882309F449C081E090E090930F018F
:1001B00080930E0142C08A81882309F040C082E00A
:1001C00090E090930F0180930E0139C08A818823BB
:1001D000C1F183E090E090930F0180930E0131C054
:1001E0008A81882381F584E090E090930F018093C9
:1001F0000E0129C08A81882341F185E090E0909327
:100200000F0180930E0121C08A81882301F586E0C9
:1002100090E090930F0180930E0119C08A8188238A
:10022000C1F081E090E090930F0180930E0111C026
:1002300010920F0110920E010DC000000BC00000C3
:1002400009C0000007C0000005C0000003C0000096
:1002500001C0000080910E0190910F018330910543
:1002600049F08530910549F0019709F009C084E211
:10027000898306C082E1898303C089E08983000005
:1002800085E290E02981FC0120836ECFEE0FFF1FF5
:100290000024001C0BBE0790F691E02D0994F89401
:0202A000FFCF8E
:0E02A20000000002000000006E0000000000DE
:00000001FF
